:020000040000FA
:040000000000DA28FA
:040004000034003490
:08000800831203130C18882079
:100010008C1A4E2009008316031321308C008312A2
:100020000313C1308B00831203130C108C12831640
:1000300003130E309F008312031341309F0008000A
:100040001F15080020201F192228080083160313FB
:10005000BF308700831603133330990083160313D0
:100060002430980083120313903098000800831600
:100070000313981C372883120313990008003008D3
:10008000372031083720320837203308372034082A
:1000900037200D3037200A30372008008312031331
:1000A0001A08C1006130410203196D284130410234
:1000B00003196D28C10072304102031973285230B0
:1000C000410203197328C1006430410203197928E1
:1000D00044304102031979280800831203131014D5
:1000E0000030D00008008312031310100130D0003C
:1000F00008000130500203197E28080022201E0843
:100100009E203F2008008312031331309000080026
:10011000831203130C10831203133B308F00CA3079
:100120008E00C00A053040020319972808000030ED
:10013000C00022201E089E203F20080083120313C7
:10014000A000A3000030A100A400B000B100B200E4
:10015000B300B400A200031033302002A000031C3F
:10016000B628A10A2208333EA200AB282108303E5F
:10017000B0002208A30205302302A300031CC228FA
:10018000A40ABB282108303EB0002C30B10024085E
:10019000303EB2003A3032020319CF28D22839302B
:1001A000B200D5282408303EB2002030B3005630CB
:1001B000B4000800262017200B208320DF28DF282A
:02400E003A3F37
:00000001FF
