:020000040000FA
:1000000000006A28831603130E309F008312031327
:1000100041309F0008001F1508000B201F190D28F4
:10002000080083160313BF30870083160313333091
:100030009900831603132430980083120313803031
:100040009800080083160313981C222883120313B8
:10005000990008003008222031082220320822208E
:1000600033082220340822200D3022200A3022209A
:10007000080083120313A000A3000030A100A40015
:10008000B000B100B200B300B400A20003103330DE
:100090002002A000031C5128A10A2208333EA2001E
:1000A00046282108303EB0002208A3020530230272
:1000B000A300031C5D28A40A56282108303EB00086
:1000C0002C30B1002408303EB2002030B30056304E
:1000D000B4000800112002206D280D201E083920D0
:0400E0002A206D283D
:0400E40000340034B0
:02400E003A3F37
:00000001FF
