:020000040000FA
:020000000000FE
:040002000034003492
:0A00060083160313BF308700831632
:10001000031333309900831603132430980083129E
:10002000031380309800080083160313981C1428CB
:10003000831203139900080083160313BF3087004F
:10004000831603133330990083160313243098006A
:100050008312031380309800080083160313981C42
:0A0060002D288312031399000800F5
:06006A00831603130E30A3
:100070009F008312031341309F0008001F150800E2
:060080001F1940280800D2
:02400E003A3F37
:00000001FF
