:020000040000FA
:040000000000E228F2
:040004000034003490
:08000800831203130C188C2075
:100010008C1A502009008316031321308C008312A0
:100020000313C1308B00831203130C108C120030A9
:10003000D000831603130E309F0083120313413048
:100040009F0008001F15080022201F1924280800FF
:1000500083160313BF3087008316031333309900D0
:1000600083160313243098008312031390309800F2
:10007000080083160313981C392883120313990070
:100080000800300839203108392032083920330877
:100090003920340839200D3039200A303920080041
:1000A000831603138C1E0800831203131A08C10061
:1000B000613041020319712841304102031971284E
:1000C0007230410203197728523041020319772810
:1000D0006430410203197D284430410203197D2810
:1000E00008008312031310140030D000080083129C
:1000F000031310100130D000080001305002031922
:100100008228080024201E08A6204120080083120F
:100110000313313090000800831603130C1C0800F1
:10012000831203130C10831203133B308F00CA3069
:100130008E00C00A0530400203199F2808000030D5
:10014000C00024201E08A6204120080083120313AB
:10015000A000A3000030A100A400B000B100B200D4
:10016000B300B400A200031033302002A000031C2F
:10017000BE28A10A2208333EA200B3282108303E3F
:10018000B0002208A30205302302A300031CCA28E2
:10019000A40AC3282108303EB0002C30B100240846
:1001A000303EB2003A3032020319D728DA2839300B
:1001B000B200DD282408303EB2002030B3005630B3
:1001C000B4000800282019200B208720E728E72802
:02400E003A3F37
:00000001FF
