:020000040000FA
:040000000000A12833
:040004000034003490
:080008000C184F208C1A48204F
:1000100009008316031301308C0083120313C130CF
:100020008B00831603130E309F008312031341309D
:100030009F0008001F1508001A201F191C2808001F
:1000400083160313BF3087008316031333309900E0
:100050008316031324309800831203138030980012
:10006000080083160313981C312883120313990088
:10007000080030083120310831203208312033089F
:100080003120340831200D3031200A303120080071
:100090008C12080083120313313090000800831281
:1000A00003130C10831203133B308F00CA308E00F1
:1000B000C00A0530400203195E2808000030C00065
:1000C0001C201E0865203920080083120313A0009D
:1000D000A3000030A100A400B000B100B200B30042
:1000E000B400A200031033302002A000031C7D28BE
:1000F000A10A2208333EA20072282108303EB00037
:100100002208A30205302302A300031C8928A40AA5
:1001100082282108303EB0002C30B1002408303E47
:10012000B2003A3032020319962899283930B200C9
:100130009C282408303EB2002030B3005630B40072
:0E01400008002020112009204A20A628A62809
:02400E003A3F37
:00000001FF
