:020000040000FA
:0400000000009D2837
:040004000034003490
:080008000C184F208C1A48204F
:1000100009008312031301308C0083120313C130D3
:100020008B00831603130E309F008312031341309D
:100030009F0008001F1508001A201F191C2808001F
:1000400083160313BF3087008316031333309900E0
:100050008316031324309800831203138030980012
:10006000080083160313981C312883120313990088
:10007000080030083120310831203208312033089F
:100080003120340831200D3031200A303120080071
:100090008C120800831203133130900008000C10FA
:1000A000831203133B308F00CA308E00C00A053024
:1000B000400203195C2808000030C000493031209C
:1000C000080083120313A000A3000030A100A400C5
:1000D000B000B100B200B300B400A200031033308E
:1000E0002002A000031C7928A10A2208333EA200A6
:1000F0006E282108303EB0002208A30205302302FA
:10010000A300031C8528A40A7E282108303EB000E5
:100110002C30B1002408303EB2003A3032020319CC
:10012000922895283930B20098282408303EB20031
:100130002030B3005630B4000800202011200920E0
:0E0140004A20A2281C201E0861203920A22877
:02400E003A3F37
:00000001FF
